{
  "_format": "hh-sol-artifact-1",
  "contractName": "BDVote",
  "sourceName": "contracts/BDVote.sol",
  "abi": [
    {
      "inputs": [],
      "stateMutability": "nonpayable",
      "type": "constructor"
    },
    {
      "anonymous": false,
      "inputs": [
        {
          "indexed": true,
          "internalType": "address",
          "name": "oldAdmin",
          "type": "address"
        },
        {
          "indexed": true,
          "internalType": "address",
          "name": "newAdmin",
          "type": "address"
        }
      ],
      "name": "AdminTransferred",
      "type": "event"
    },
    {
      "anonymous": false,
      "inputs": [
        {
          "indexed": false,
          "internalType": "uint256",
          "name": "timestamp",
          "type": "uint256"
        }
      ],
      "name": "ElectionEnded",
      "type": "event"
    },
    {
      "anonymous": false,
      "inputs": [
        {
          "indexed": false,
          "internalType": "uint256",
          "name": "timestamp",
          "type": "uint256"
        }
      ],
      "name": "ElectionStarted",
      "type": "event"
    },
    {
      "anonymous": false,
      "inputs": [
        {
          "indexed": true,
          "internalType": "bytes32",
          "name": "voterIdHash",
          "type": "bytes32"
        },
        {
          "indexed": true,
          "internalType": "bytes32",
          "name": "candidateHash",
          "type": "bytes32"
        },
        {
          "indexed": false,
          "internalType": "bytes32",
          "name": "receiptHash",
          "type": "bytes32"
        },
        {
          "indexed": false,
          "internalType": "uint256",
          "name": "timestamp",
          "type": "uint256"
        },
        {
          "indexed": false,
          "internalType": "uint256",
          "name": "voteIndex",
          "type": "uint256"
        }
      ],
      "name": "VoteCast",
      "type": "event"
    },
    {
      "inputs": [],
      "name": "admin",
      "outputs": [
        {
          "internalType": "address",
          "name": "",
          "type": "address"
        }
      ],
      "stateMutability": "view",
      "type": "function"
    },
    {
      "inputs": [
        {
          "internalType": "bytes32",
          "name": "",
          "type": "bytes32"
        }
      ],
      "name": "candidateVotes",
      "outputs": [
        {
          "internalType": "uint256",
          "name": "",
          "type": "uint256"
        }
      ],
      "stateMutability": "view",
      "type": "function"
    },
    {
      "inputs": [
        {
          "internalType": "bytes32",
          "name": "voterIdHash",
          "type": "bytes32"
        },
        {
          "internalType": "bytes32",
          "name": "candidateHash",
          "type": "bytes32"
        }
      ],
      "name": "castVote",
      "outputs": [
        {
          "internalType": "bytes32",
          "name": "receiptHash",
          "type": "bytes32"
        }
      ],
      "stateMutability": "nonpayable",
      "type": "function"
    },
    {
      "inputs": [
        {
          "internalType": "bytes32",
          "name": "voterIdHash",
          "type": "bytes32"
        }
      ],
      "name": "checkHasVoted",
      "outputs": [
        {
          "internalType": "bool",
          "name": "",
          "type": "bool"
        }
      ],
      "stateMutability": "view",
      "type": "function"
    },
    {
      "inputs": [],
      "name": "electionActive",
      "outputs": [
        {
          "internalType": "bool",
          "name": "",
          "type": "bool"
        }
      ],
      "stateMutability": "view",
      "type": "function"
    },
    {
      "inputs": [],
      "name": "endElection",
      "outputs": [],
      "stateMutability": "nonpayable",
      "type": "function"
    },
    {
      "inputs": [
        {
          "internalType": "bytes32",
          "name": "candidateHash",
          "type": "bytes32"
        }
      ],
      "name": "getCandidateVotes",
      "outputs": [
        {
          "internalType": "uint256",
          "name": "",
          "type": "uint256"
        }
      ],
      "stateMutability": "view",
      "type": "function"
    },
    {
      "inputs": [
        {
          "internalType": "bytes32[]",
          "name": "candidateHashes",
          "type": "bytes32[]"
        }
      ],
      "name": "getResults",
      "outputs": [
        {
          "internalType": "uint256[]",
          "name": "voteCounts",
          "type": "uint256[]"
        }
      ],
      "stateMutability": "view",
      "type": "function"
    },
    {
      "inputs": [
        {
          "internalType": "uint256",
          "name": "index",
          "type": "uint256"
        }
      ],
      "name": "getVote",
      "outputs": [
        {
          "internalType": "bytes32",
          "name": "voterIdHash",
          "type": "bytes32"
        },
        {
          "internalType": "bytes32",
          "name": "candidateHash",
          "type": "bytes32"
        },
        {
          "internalType": "uint256",
          "name": "timestamp",
          "type": "uint256"
        },
        {
          "internalType": "bytes32",
          "name": "receiptHash",
          "type": "bytes32"
        },
        {
          "internalType": "address",
          "name": "submittedBy",
          "type": "address"
        }
      ],
      "stateMutability": "view",
      "type": "function"
    },
    {
      "inputs": [],
      "name": "getVoteCount",
      "outputs": [
        {
          "internalType": "uint256",
          "name": "",
          "type": "uint256"
        }
      ],
      "stateMutability": "view",
      "type": "function"
    },
    {
      "inputs": [
        {
          "internalType": "bytes32",
          "name": "",
          "type": "bytes32"
        }
      ],
      "name": "hasVoted",
      "outputs": [
        {
          "internalType": "bool",
          "name": "",
          "type": "bool"
        }
      ],
      "stateMutability": "view",
      "type": "function"
    },
    {
      "inputs": [],
      "name": "isElectionActive",
      "outputs": [
        {
          "internalType": "bool",
          "name": "",
          "type": "bool"
        }
      ],
      "stateMutability": "view",
      "type": "function"
    },
    {
      "inputs": [
        {
          "internalType": "bytes32",
          "name": "",
          "type": "bytes32"
        }
      ],
      "name": "receiptExists",
      "outputs": [
        {
          "internalType": "bool",
          "name": "",
          "type": "bool"
        }
      ],
      "stateMutability": "view",
      "type": "function"
    },
    {
      "inputs": [],
      "name": "totalVotes",
      "outputs": [
        {
          "internalType": "uint256",
          "name": "",
          "type": "uint256"
        }
      ],
      "stateMutability": "view",
      "type": "function"
    },
    {
      "inputs": [
        {
          "internalType": "address",
          "name": "newAdmin",
          "type": "address"
        }
      ],
      "name": "transferAdmin",
      "outputs": [],
      "stateMutability": "nonpayable",
      "type": "function"
    },
    {
      "inputs": [
        {
          "internalType": "bytes32",
          "name": "receipt",
          "type": "bytes32"
        }
      ],
      "name": "verifyReceipt",
      "outputs": [
        {
          "internalType": "bool",
          "name": "exists",
          "type": "bool"
        }
      ],
      "stateMutability": "view",
      "type": "function"
    },
    {
      "inputs": [
        {
          "internalType": "uint256",
          "name": "",
          "type": "uint256"
        }
      ],
      "name": "votes",
      "outputs": [
        {
          "internalType": "bytes32",
          "name": "voterIdHash",
          "type": "bytes32"
        },
        {
          "internalType": "bytes32",
          "name": "candidateHash",
          "type": "bytes32"
        },
        {
          "internalType": "uint256",
          "name": "timestamp",
          "type": "uint256"
        },
        {
          "internalType": "bytes32",
          "name": "receiptHash",
          "type": "bytes32"
        },
        {
          "internalType": "address",
          "name": "submittedBy",
          "type": "address"
        }
      ],
      "stateMutability": "view",
      "type": "function"
    }
  ],
  "bytecode": "0x608060405234801561001057600080fd5b50336000806101000a81548173ffffffffffffffffffffffffffffffffffffffff021916908373ffffffffffffffffffffffffffffffffffffffff1602179055506001600060146101000a81548160ff0219169083151502179055507f159eee87222a0489c529f2153c26ad65d718f2cc33ebaa8d399d1dd5b39facaa4260405161009b91906100c1565b60405180910390a16100dc565b6000819050919050565b6100bb816100a8565b82525050565b60006020820190506100d660008301846100b2565b92915050565b611672806100eb6000396000f3fe608060405234801561001057600080fd5b506004361061010b5760003560e01c806375829def116100a2578063c844223911610071578063c8442239146102fa578063e7b3387c14610318578063f7e9358614610336578063f851a44014610366578063f9d969c9146103845761010b565b806375829def146102605780637ed628bb1461027c5780638174794e1461029a578063a656234f146102ca5761010b565b806359f78468116100de57806359f78468146101be5780635a55c1f0146101c85780635df81330146101fc5780636721d18d146102305761010b565b80630d15fd77146101105780631b4613cb1461012e5780631c19656f1461015e5780632f1fdc2a1461018e575b600080fd5b6101186103b4565b6040516101259190610cf4565b60405180910390f35b61014860048036038101906101439190610d4f565b6103ba565b6040516101559190610d97565b60405180910390f35b61017860048036038101906101739190610d4f565b6103da565b6040516101859190610d97565b60405180910390f35b6101a860048036038101906101a39190610d4f565b610404565b6040516101b59190610cf4565b60405180910390f35b6101c661041c565b005b6101e260048036038101906101dd9190610dde565b61054c565b6040516101f3959493929190610e5b565b60405180910390f35b61021660048036038101906102119190610dde565b61060e565b604051610227959493929190610e5b565b60405180910390f35b61024a60048036038101906102459190610eae565b610674565b6040516102579190610eee565b60405180910390f35b61027a60048036038101906102759190610f35565b6109a5565b005b610284610b5f565b6040516102919190610d97565b60405180910390f35b6102b460048036038101906102af9190610d4f565b610b72565b6040516102c19190610d97565b60405180910390f35b6102e460048036038101906102df9190610d4f565b610b9c565b6040516102f19190610cf4565b60405180910390f35b610302610bb9565b60405161030f9190610d97565b60405180910390f35b610320610bcf565b60405161032d9190610cf4565b60405180910390f35b610350600480360381019061034b9190610fc7565b610bd9565b60405161035d91906110d2565b60405180910390f35b61036e610c97565b60405161037b91906110f4565b60405180910390f35b61039e60048036038101906103999190610d4f565b610cbb565b6040516103ab9190610d97565b60405180910390f35b60015481565b60036020528060005260406000206000915054906101000a900460ff1681565b60006003600083815260200190815260200160002060009054906101000a900460ff169050919050565b60046020528060005260406000206000915090505481565b60008054906101000a900473ffffffffffffffffffffffffffffffffffffffff1673ffffffffffffffffffffffffffffffffffffffff163373ffffffffffffffffffffffffffffffffffffffff16146104aa576040517f08c379a00000000000000000000000000000000000000000000000000000000081526004016104a19061116c565b60405180910390fd5b600060149054906101000a900460ff166104f9576040517f08c379a00000000000000000000000000000000000000000000000000000000081526004016104f0906111d8565b60405180910390fd5b60008060146101000a81548160ff0219169083151502179055507f562cd572b2ba3b666cd989fc4ca98419ec81e75f04528df9d9d76fdb7807ee71426040516105429190610cf4565b60405180910390a1565b6000806000806000600280549050861061059b576040517f08c379a000000000000000000000000000000000000000000000000000000000815260040161059290611244565b60405180910390fd5b6000600287815481106105b1576105b0611264565b5b9060005260206000209060050201905080600001548160010154826002015483600301548460040160009054906101000a900473ffffffffffffffffffffffffffffffffffffffff16955095509550955095505091939590929450565b6002818154811061061e57600080fd5b90600052602060002090600502016000915090508060000154908060010154908060020154908060030154908060040160009054906101000a900473ffffffffffffffffffffffffffffffffffffffff16905085565b60008060149054906101000a900460ff166106c4576040517f08c379a00000000000000000000000000000000000000000000000000000000081526004016106bb906112df565b60405180910390fd5b6003600084815260200190815260200160002060009054906101000a900460ff1615610725576040517f08c379a000000000000000000000000000000000000000000000000000000000815260040161071c9061134b565b60405180910390fd5b6000801b830361076a576040517f08c379a0000000000000000000000000000000000000000000000000000000008152600401610761906113b7565b60405180910390fd5b6000801b82036107af576040517f08c379a00000000000000000000000000000000000000000000000000000000081526004016107a690611423565b60405180910390fd5b8282426001546040516020016107c89493929190611485565b60405160208183030381529060405280519060200120905060016003600085815260200190815260200160002060006101000a81548160ff02191690831515021790555060016004600084815260200190815260200160002060008282546108309190611502565b9250508190555060018060008282546108499190611502565b9250508190555060026040518060a001604052808581526020018481526020014281526020018381526020013373ffffffffffffffffffffffffffffffffffffffff1681525090806001815401808255809150506001900390600052602060002090600502016000909190919091506000820151816000015560208201518160010155604082015181600201556060820151816003015560808201518160040160006101000a81548173ffffffffffffffffffffffffffffffffffffffff021916908373ffffffffffffffffffffffffffffffffffffffff160217905550505060016005600083815260200190815260200160002060006101000a81548160ff02191690831515021790555081837fce693c56605294696fcb93b837c3d9a09f92482976189f16a2b32e23246eec9b8342600180546109889190611536565b6040516109979392919061156a565b60405180910390a392915050565b60008054906101000a900473ffffffffffffffffffffffffffffffffffffffff1673ffffffffffffffffffffffffffffffffffffffff163373ffffffffffffffffffffffffffffffffffffffff1614610a33576040517f08c379a0000000000000000000000000000000000000000000000000000000008152600401610a2a9061116c565b60405180910390fd5b600073ffffffffffffffffffffffffffffffffffffffff168173ffffffffffffffffffffffffffffffffffffffff1603610aa2576040517f08c379a0000000000000000000000000000000000000000000000000000000008152600401610a99906115ed565b60405180910390fd5b8073ffffffffffffffffffffffffffffffffffffffff1660008054906101000a900473ffffffffffffffffffffffffffffffffffffffff1673ffffffffffffffffffffffffffffffffffffffff167ff8ccb027dfcd135e000e9d45e6cc2d662578a8825d4c45b5e32e0adf67e79ec660405160405180910390a3806000806101000a81548173ffffffffffffffffffffffffffffffffffffffff021916908373ffffffffffffffffffffffffffffffffffffffff16021790555050565b600060149054906101000a900460ff1681565b60006005600083815260200190815260200160002060009054906101000a900460ff169050919050565b600060046000838152602001908152602001600020549050919050565b60008060149054906101000a900460ff16905090565b6000600154905090565b60608282905067ffffffffffffffff811115610bf857610bf761160d565b5b604051908082528060200260200182016040528015610c265781602001602082028036833780820191505090505b50905060005b83839050811015610c905760046000858584818110610c4e57610c4d611264565b5b90506020020135815260200190815260200160002054828281518110610c7757610c76611264565b5b6020026020010181815250508080600101915050610c2c565b5092915050565b60008054906101000a900473ffffffffffffffffffffffffffffffffffffffff1681565b60056020528060005260406000206000915054906101000a900460ff1681565b6000819050919050565b610cee81610cdb565b82525050565b6000602082019050610d096000830184610ce5565b92915050565b600080fd5b600080fd5b6000819050919050565b610d2c81610d19565b8114610d3757600080fd5b50565b600081359050610d4981610d23565b92915050565b600060208284031215610d6557610d64610d0f565b5b6000610d7384828501610d3a565b91505092915050565b60008115159050919050565b610d9181610d7c565b82525050565b6000602082019050610dac6000830184610d88565b92915050565b610dbb81610cdb565b8114610dc657600080fd5b50565b600081359050610dd881610db2565b92915050565b600060208284031215610df457610df3610d0f565b5b6000610e0284828501610dc9565b91505092915050565b610e1481610d19565b82525050565b600073ffffffffffffffffffffffffffffffffffffffff82169050919050565b6000610e4582610e1a565b9050919050565b610e5581610e3a565b82525050565b600060a082019050610e706000830188610e0b565b610e7d6020830187610e0b565b610e8a6040830186610ce5565b610e976060830185610e0b565b610ea46080830184610e4c565b9695505050505050565b60008060408385031215610ec557610ec4610d0f565b5b6000610ed385828601610d3a565b9250506020610ee485828601610d3a565b9150509250929050565b6000602082019050610f036000830184610e0b565b92915050565b610f1281610e3a565b8114610f1d57600080fd5b50565b600081359050610f2f81610f09565b92915050565b600060208284031215610f4b57610f4a610d0f565b5b6000610f5984828501610f20565b91505092915050565b600080fd5b600080fd5b600080fd5b60008083601f840112610f8757610f86610f62565b5b8235905067ffffffffffffffff811115610fa457610fa3610f67565b5b602083019150836020820283011115610fc057610fbf610f6c565b5b9250929050565b60008060208385031215610fde57610fdd610d0f565b5b600083013567ffffffffffffffff811115610ffc57610ffb610d14565b5b61100885828601610f71565b92509250509250929050565b600081519050919050565b600082825260208201905092915050565b6000819050602082019050919050565b61104981610cdb565b82525050565b600061105b8383611040565b60208301905092915050565b6000602082019050919050565b600061107f82611014565b611089818561101f565b935061109483611030565b8060005b838110156110c55781516110ac888261104f565b97506110b783611067565b925050600181019050611098565b5085935050505092915050565b600060208201905081810360008301526110ec8184611074565b905092915050565b60006020820190506111096000830184610e4c565b92915050565b600082825260208201905092915050565b7f4f6e6c792061646d696e2063616e2063616c6c20746869730000000000000000600082015250565b600061115660188361110f565b915061116182611120565b602082019050919050565b6000602082019050818103600083015261118581611149565b9050919050565b7f456c656374696f6e206e6f742061637469766500000000000000000000000000600082015250565b60006111c260138361110f565b91506111cd8261118c565b602082019050919050565b600060208201905081810360008301526111f1816111b5565b9050919050565b7f566f746520696e646578206f7574206f6620626f756e64730000000000000000600082015250565b600061122e60188361110f565b9150611239826111f8565b602082019050919050565b6000602082019050818103600083015261125d81611221565b9050919050565b7f4e487b7100000000000000000000000000000000000000000000000000000000600052603260045260246000fd5b7f456c656374696f6e206973206e6f742061637469766500000000000000000000600082015250565b60006112c960168361110f565b91506112d482611293565b602082019050919050565b600060208201905081810360008301526112f8816112bc565b9050919050565b7f5468697320766f7465722068617320616c726561647920766f74656400000000600082015250565b6000611335601c8361110f565b9150611340826112ff565b602082019050919050565b6000602082019050818103600083015261136481611328565b9050919050565b7f496e76616c696420766f74657220494420686173680000000000000000000000600082015250565b60006113a160158361110f565b91506113ac8261136b565b602082019050919050565b600060208201905081810360008301526113d081611394565b9050919050565b7f496e76616c69642063616e646964617465206861736800000000000000000000600082015250565b600061140d60168361110f565b9150611418826113d7565b602082019050919050565b6000602082019050818103600083015261143c81611400565b9050919050565b6000819050919050565b61145e61145982610d19565b611443565b82525050565b6000819050919050565b61147f61147a82610cdb565b611464565b82525050565b6000611491828761144d565b6020820191506114a1828661144d565b6020820191506114b1828561146e565b6020820191506114c1828461146e565b60208201915081905095945050505050565b7f4e487b7100000000000000000000000000000000000000000000000000000000600052601160045260246000fd5b600061150d82610cdb565b915061151883610cdb565b92508282019050808211156115305761152f6114d3565b5b92915050565b600061154182610cdb565b915061154c83610cdb565b9250828203905081811115611564576115636114d3565b5b92915050565b600060608201905061157f6000830186610e0b565b61158c6020830185610ce5565b6115996040830184610ce5565b949350505050565b7f496e76616c696420616464726573730000000000000000000000000000000000600082015250565b60006115d7600f8361110f565b91506115e2826115a1565b602082019050919050565b60006020820190508181036000830152611606816115ca565b9050919050565b7f4e487b7100000000000000000000000000000000000000000000000000000000600052604160045260246000fdfea264697066735822122029ee1e01908ebfb75ff89fcc9510525f5424ed17acac2e0f37496d0491732fad64736f6c63430008180033",
  "linkReferences": {},
  "deployedLinkReferences": {}
}