{
  "_format": "hh-sol-artifact-1",
  "contractName": "BDVote",
  "sourceName": "contracts/BDVote.sol",
  "abi": [
    {
      "inputs": [],
      "stateMutability": "nonpayable",
      "type": "constructor"
    },
    {
      "anonymous": false,
      "inputs": [
        {
          "indexed": true,
          "internalType": "address",
          "name": "oldAdmin",
          "type": "address"
        },
        {
          "indexed": true,
          "internalType": "address",
          "name": "newAdmin",
          "type": "address"
        }
      ],
      "name": "AdminTransferred",
      "type": "event"
    },
    {
      "anonymous": false,
      "inputs": [
        {
          "indexed": false,
          "internalType": "uint256",
          "name": "timestamp",
          "type": "uint256"
        }
      ],
      "name": "ElectionEnded",
      "type": "event"
    },
    {
      "anonymous": false,
      "inputs": [
        {
          "indexed": false,
          "internalType": "uint256",
          "name": "timestamp",
          "type": "uint256"
        }
      ],
      "name": "ElectionStarted",
      "type": "event"
    },
    {
      "anonymous": false,
      "inputs": [
        {
          "indexed": true,
          "internalType": "bytes32",
          "name": "voterIdHash",
          "type": "bytes32"
        },
        {
          "indexed": true,
          "internalType": "bytes32",
          "name": "candidateHash",
          "type": "bytes32"
        },
        {
          "indexed": false,
          "internalType": "string",
          "name": "candidateName",
          "type": "string"
        },
        {
          "indexed": false,
          "internalType": "bytes32",
          "name": "receiptHash",
          "type": "bytes32"
        },
        {
          "indexed": false,
          "internalType": "uint256",
          "name": "timestamp",
          "type": "uint256"
        },
        {
          "indexed": false,
          "internalType": "uint256",
          "name": "voteIndex",
          "type": "uint256"
        }
      ],
      "name": "VoteCast",
      "type": "event"
    },
    {
      "inputs": [],
      "name": "admin",
      "outputs": [
        {
          "internalType": "address",
          "name": "",
          "type": "address"
        }
      ],
      "stateMutability": "view",
      "type": "function"
    },
    {
      "inputs": [
        {
          "internalType": "bytes32",
          "name": "",
          "type": "bytes32"
        }
      ],
      "name": "candidateVotes",
      "outputs": [
        {
          "internalType": "uint256",
          "name": "",
          "type": "uint256"
        }
      ],
      "stateMutability": "view",
      "type": "function"
    },
    {
      "inputs": [
        {
          "internalType": "bytes32",
          "name": "voterIdHash",
          "type": "bytes32"
        },
        {
          "internalType": "bytes32",
          "name": "candidateHash",
          "type": "bytes32"
        },
        {
          "internalType": "string",
          "name": "candidateName",
          "type": "string"
        }
      ],
      "name": "castVote",
      "outputs": [
        {
          "internalType": "bytes32",
          "name": "receiptHash",
          "type": "bytes32"
        }
      ],
      "stateMutability": "nonpayable",
      "type": "function"
    },
    {
      "inputs": [
        {
          "internalType": "bytes32",
          "name": "voterIdHash",
          "type": "bytes32"
        }
      ],
      "name": "checkHasVoted",
      "outputs": [
        {
          "internalType": "bool",
          "name": "",
          "type": "bool"
        }
      ],
      "stateMutability": "view",
      "type": "function"
    },
    {
      "inputs": [],
      "name": "electionActive",
      "outputs": [
        {
          "internalType": "bool",
          "name": "",
          "type": "bool"
        }
      ],
      "stateMutability": "view",
      "type": "function"
    },
    {
      "inputs": [],
      "name": "endElection",
      "outputs": [],
      "stateMutability": "nonpayable",
      "type": "function"
    },
    {
      "inputs": [
        {
          "internalType": "bytes32",
          "name": "candidateHash",
          "type": "bytes32"
        }
      ],
      "name": "getCandidateVotes",
      "outputs": [
        {
          "internalType": "uint256",
          "name": "",
          "type": "uint256"
        }
      ],
      "stateMutability": "view",
      "type": "function"
    },
    {
      "inputs": [
        {
          "internalType": "bytes32[]",
          "name": "candidateHashes",
          "type": "bytes32[]"
        }
      ],
      "name": "getResults",
      "outputs": [
        {
          "internalType": "uint256[]",
          "name": "voteCounts",
          "type": "uint256[]"
        }
      ],
      "stateMutability": "view",
      "type": "function"
    },
    {
      "inputs": [
        {
          "internalType": "uint256",
          "name": "index",
          "type": "uint256"
        }
      ],
      "name": "getVote",
      "outputs": [
        {
          "internalType": "bytes32",
          "name": "voterIdHash",
          "type": "bytes32"
        },
        {
          "internalType": "bytes32",
          "name": "candidateHash",
          "type": "bytes32"
        },
        {
          "internalType": "string",
          "name": "candidateName",
          "type": "string"
        },
        {
          "internalType": "uint256",
          "name": "timestamp",
          "type": "uint256"
        },
        {
          "internalType": "bytes32",
          "name": "receiptHash",
          "type": "bytes32"
        },
        {
          "internalType": "address",
          "name": "submittedBy",
          "type": "address"
        }
      ],
      "stateMutability": "view",
      "type": "function"
    },
    {
      "inputs": [],
      "name": "getVoteCount",
      "outputs": [
        {
          "internalType": "uint256",
          "name": "",
          "type": "uint256"
        }
      ],
      "stateMutability": "view",
      "type": "function"
    },
    {
      "inputs": [
        {
          "internalType": "bytes32",
          "name": "",
          "type": "bytes32"
        }
      ],
      "name": "hasVoted",
      "outputs": [
        {
          "internalType": "bool",
          "name": "",
          "type": "bool"
        }
      ],
      "stateMutability": "view",
      "type": "function"
    },
    {
      "inputs": [],
      "name": "isElectionActive",
      "outputs": [
        {
          "internalType": "bool",
          "name": "",
          "type": "bool"
        }
      ],
      "stateMutability": "view",
      "type": "function"
    },
    {
      "inputs": [
        {
          "internalType": "bytes32",
          "name": "",
          "type": "bytes32"
        }
      ],
      "name": "receiptExists",
      "outputs": [
        {
          "internalType": "bool",
          "name": "",
          "type": "bool"
        }
      ],
      "stateMutability": "view",
      "type": "function"
    },
    {
      "inputs": [],
      "name": "totalVotes",
      "outputs": [
        {
          "internalType": "uint256",
          "name": "",
          "type": "uint256"
        }
      ],
      "stateMutability": "view",
      "type": "function"
    },
    {
      "inputs": [
        {
          "internalType": "address",
          "name": "newAdmin",
          "type": "address"
        }
      ],
      "name": "transferAdmin",
      "outputs": [],
      "stateMutability": "nonpayable",
      "type": "function"
    },
    {
      "inputs": [
        {
          "internalType": "bytes32",
          "name": "receipt",
          "type": "bytes32"
        }
      ],
      "name": "verifyReceipt",
      "outputs": [
        {
          "internalType": "bool",
          "name": "exists",
          "type": "bool"
        }
      ],
      "stateMutability": "view",
      "type": "function"
    },
    {
      "inputs": [
        {
          "internalType": "uint256",
          "name": "",
          "type": "uint256"
        }
      ],
      "name": "votes",
      "outputs": [
        {
          "internalType": "bytes32",
          "name": "voterIdHash",
          "type": "bytes32"
        },
        {
          "internalType": "bytes32",
          "name": "candidateHash",
          "type": "bytes32"
        },
        {
          "internalType": "string",
          "name": "candidateName",
          "type": "string"
        },
        {
          "internalType": "uint256",
          "name": "timestamp",
          "type": "uint256"
        },
        {
          "internalType": "bytes32",
          "name": "receiptHash",
          "type": "bytes32"
        },
        {
          "internalType": "address",
          "name": "submittedBy",
          "type": "address"
        }
      ],
      "stateMutability": "view",
      "type": "function"
    }
  ],
  "bytecode": "0x608060405234801561001057600080fd5b50336000806101000a81548173ffffffffffffffffffffffffffffffffffffffff021916908373ffffffffffffffffffffffffffffffffffffffff1602179055506001600060146101000a81548160ff0219169083151502179055507f159eee87222a0489c529f2153c26ad65d718f2cc33ebaa8d399d1dd5b39facaa4260405161009b91906100c1565b60405180910390a16100dc565b6000819050919050565b6100bb816100a8565b82525050565b60006020820190506100d660008301846100b2565b92915050565b611c4b80620000ec6000396000f3fe608060405234801561001057600080fd5b506004361061010b5760003560e01c80637ed628bb116100a2578063c844223911610071578063c8442239146102fc578063e7b3387c1461031a578063f7e9358614610338578063f851a44014610368578063f9d969c9146103865761010b565b80637ed628bb1461024e5780638174794e1461026c5780639b90be751461029c578063a656234f146102cc5761010b565b806359f78468116100de57806359f78468146101be5780635a55c1f0146101c85780635df81330146101fd57806375829def146102325761010b565b80630d15fd77146101105780631b4613cb1461012e5780631c19656f1461015e5780632f1fdc2a1461018e575b600080fd5b6101186103b6565b6040516101259190610e7e565b60405180910390f35b61014860048036038101906101439190610ed9565b6103bc565b6040516101559190610f21565b60405180910390f35b61017860048036038101906101739190610ed9565b6103dc565b6040516101859190610f21565b60405180910390f35b6101a860048036038101906101a39190610ed9565b610406565b6040516101b59190610e7e565b60405180910390f35b6101c661041e565b005b6101e260048036038101906101dd9190610f68565b61054e565b6040516101f496959493929190611075565b60405180910390f35b61021760048036038101906102129190610f68565b6106a4565b60405161022996959493929190611075565b60405180910390f35b61024c60048036038101906102479190611109565b610798565b005b610256610952565b6040516102639190610f21565b60405180910390f35b61028660048036038101906102819190610ed9565b610965565b6040516102939190610f21565b60405180910390f35b6102b660048036038101906102b1919061119b565b61098f565b6040516102c3919061120f565b60405180910390f35b6102e660048036038101906102e19190610ed9565b610d26565b6040516102f39190610e7e565b60405180910390f35b610304610d43565b6040516103119190610f21565b60405180910390f35b610322610d59565b60405161032f9190610e7e565b60405180910390f35b610352600480360381019061034d9190611280565b610d63565b60405161035f919061138b565b60405180910390f35b610370610e21565b60405161037d91906113ad565b60405180910390f35b6103a0600480360381019061039b9190610ed9565b610e45565b6040516103ad9190610f21565b60405180910390f35b60015481565b60036020528060005260406000206000915054906101000a900460ff1681565b60006003600083815260200190815260200160002060009054906101000a900460ff169050919050565b60046020528060005260406000206000915090505481565b60008054906101000a900473ffffffffffffffffffffffffffffffffffffffff1673ffffffffffffffffffffffffffffffffffffffff163373ffffffffffffffffffffffffffffffffffffffff16146104ac576040517f08c379a00000000000000000000000000000000000000000000000000000000081526004016104a390611414565b60405180910390fd5b600060149054906101000a900460ff166104fb576040517f08c379a00000000000000000000000000000000000000000000000000000000081526004016104f290611480565b60405180910390fd5b60008060146101000a81548160ff0219169083151502179055507f562cd572b2ba3b666cd989fc4ca98419ec81e75f04528df9d9d76fdb7807ee71426040516105449190610e7e565b60405180910390a1565b60008060606000806000600280549050871061059f576040517f08c379a0000000000000000000000000000000000000000000000000000000008152600401610596906114ec565b60405180910390fd5b6000600288815481106105b5576105b461150c565b5b906000526020600020906006020190508060000154816001015482600201836003015484600401548560050160009054906101000a900473ffffffffffffffffffffffffffffffffffffffff1683805461060e9061156a565b80601f016020809104026020016040519081016040528092919081815260200182805461063a9061156a565b80156106875780601f1061065c57610100808354040283529160200191610687565b820191906000526020600020905b81548152906001019060200180831161066a57829003601f168201915b505050505093509650965096509650965096505091939550919395565b600281815481106106b457600080fd5b90600052602060002090600602016000915090508060000154908060010154908060020180546106e39061156a565b80601f016020809104026020016040519081016040528092919081815260200182805461070f9061156a565b801561075c5780601f106107315761010080835404028352916020019161075c565b820191906000526020600020905b81548152906001019060200180831161073f57829003601f168201915b5050505050908060030154908060040154908060050160009054906101000a900473ffffffffffffffffffffffffffffffffffffffff16905086565b60008054906101000a900473ffffffffffffffffffffffffffffffffffffffff1673ffffffffffffffffffffffffffffffffffffffff163373ffffffffffffffffffffffffffffffffffffffff1614610826576040517f08c379a000000000000000000000000000000000000000000000000000000000815260040161081d90611414565b60405180910390fd5b600073ffffffffffffffffffffffffffffffffffffffff168173ffffffffffffffffffffffffffffffffffffffff1603610895576040517f08c379a000000000000000000000000000000000000000000000000000000000815260040161088c906115e7565b60405180910390fd5b8073ffffffffffffffffffffffffffffffffffffffff1660008054906101000a900473ffffffffffffffffffffffffffffffffffffffff1673ffffffffffffffffffffffffffffffffffffffff167ff8ccb027dfcd135e000e9d45e6cc2d662578a8825d4c45b5e32e0adf67e79ec660405160405180910390a3806000806101000a81548173ffffffffffffffffffffffffffffffffffffffff021916908373ffffffffffffffffffffffffffffffffffffffff16021790555050565b600060149054906101000a900460ff1681565b60006005600083815260200190815260200160002060009054906101000a900460ff169050919050565b60008060149054906101000a900460ff166109df576040517f08c379a00000000000000000000000000000000000000000000000000000000081526004016109d690611653565b60405180910390fd5b6003600086815260200190815260200160002060009054906101000a900460ff1615610a40576040517f08c379a0000000000000000000000000000000000000000000000000000000008152600401610a37906116bf565b60405180910390fd5b6000801b8503610a85576040517f08c379a0000000000000000000000000000000000000000000000000000000008152600401610a7c9061172b565b60405180910390fd5b6000801b8403610aca576040517f08c379a0000000000000000000000000000000000000000000000000000000008152600401610ac190611797565b60405180910390fd5b848442600154604051602001610ae394939291906117f9565b60405160208183030381529060405280519060200120905060016003600087815260200190815260200160002060006101000a81548160ff0219169083151502179055506001600460008681526020019081526020016000206000828254610b4b9190611876565b925050819055506001806000828254610b649190611876565b9250508190555060026040518060c0016040528087815260200186815260200185858080601f016020809104026020016040519081016040528093929190818152602001838380828437600081840152601f19601f8201169050808301925050505050505081526020014281526020018381526020013373ffffffffffffffffffffffffffffffffffffffff16815250908060018154018082558091505060019003906000526020600020906006020160009091909190915060008201518160000155602082015181600101556040820151816002019081610c469190611a85565b50606082015181600301556080820151816004015560a08201518160050160006101000a81548173ffffffffffffffffffffffffffffffffffffffff021916908373ffffffffffffffffffffffffffffffffffffffff160217905550505060016005600083815260200190815260200160002060006101000a81548160ff02191690831515021790555083857ff71e041eec3cc35f650f0bc6d7960593c336a92e061a5bd24818d02d7e761a848585854260018054610d059190611b57565b604051610d16959493929190611bc7565b60405180910390a3949350505050565b600060046000838152602001908152602001600020549050919050565b60008060149054906101000a900460ff16905090565b6000600154905090565b60608282905067ffffffffffffffff811115610d8257610d816118aa565b5b604051908082528060200260200182016040528015610db05781602001602082028036833780820191505090505b50905060005b83839050811015610e1a5760046000858584818110610dd857610dd761150c565b5b90506020020135815260200190815260200160002054828281518110610e0157610e0061150c565b5b6020026020010181815250508080600101915050610db6565b5092915050565b60008054906101000a900473ffffffffffffffffffffffffffffffffffffffff1681565b60056020528060005260406000206000915054906101000a900460ff1681565b6000819050919050565b610e7881610e65565b82525050565b6000602082019050610e936000830184610e6f565b92915050565b600080fd5b600080fd5b6000819050919050565b610eb681610ea3565b8114610ec157600080fd5b50565b600081359050610ed381610ead565b92915050565b600060208284031215610eef57610eee610e99565b5b6000610efd84828501610ec4565b91505092915050565b60008115159050919050565b610f1b81610f06565b82525050565b6000602082019050610f366000830184610f12565b92915050565b610f4581610e65565b8114610f5057600080fd5b50565b600081359050610f6281610f3c565b92915050565b600060208284031215610f7e57610f7d610e99565b5b6000610f8c84828501610f53565b91505092915050565b610f9e81610ea3565b82525050565b600081519050919050565b600082825260208201905092915050565b60005b83811015610fde578082015181840152602081019050610fc3565b60008484015250505050565b6000601f19601f8301169050919050565b600061100682610fa4565b6110108185610faf565b9350611020818560208601610fc0565b61102981610fea565b840191505092915050565b600073ffffffffffffffffffffffffffffffffffffffff82169050919050565b600061105f82611034565b9050919050565b61106f81611054565b82525050565b600060c08201905061108a6000830189610f95565b6110976020830188610f95565b81810360408301526110a98187610ffb565b90506110b86060830186610e6f565b6110c56080830185610f95565b6110d260a0830184611066565b979650505050505050565b6110e681611054565b81146110f157600080fd5b50565b600081359050611103816110dd565b92915050565b60006020828403121561111f5761111e610e99565b5b600061112d848285016110f4565b91505092915050565b600080fd5b600080fd5b600080fd5b60008083601f84011261115b5761115a611136565b5b8235905067ffffffffffffffff8111156111785761117761113b565b5b60208301915083600182028301111561119457611193611140565b5b9250929050565b600080600080606085870312156111b5576111b4610e99565b5b60006111c387828801610ec4565b94505060206111d487828801610ec4565b935050604085013567ffffffffffffffff8111156111f5576111f4610e9e565b5b61120187828801611145565b925092505092959194509250565b60006020820190506112246000830184610f95565b92915050565b60008083601f8401126112405761123f611136565b5b8235905067ffffffffffffffff81111561125d5761125c61113b565b5b60208301915083602082028301111561127957611278611140565b5b9250929050565b6000806020838503121561129757611296610e99565b5b600083013567ffffffffffffffff8111156112b5576112b4610e9e565b5b6112c18582860161122a565b92509250509250929050565b600081519050919050565b600082825260208201905092915050565b6000819050602082019050919050565b61130281610e65565b82525050565b600061131483836112f9565b60208301905092915050565b6000602082019050919050565b6000611338826112cd565b61134281856112d8565b935061134d836112e9565b8060005b8381101561137e5781516113658882611308565b975061137083611320565b925050600181019050611351565b5085935050505092915050565b600060208201905081810360008301526113a5818461132d565b905092915050565b60006020820190506113c26000830184611066565b92915050565b7f4f6e6c792061646d696e2063616e2063616c6c20746869730000000000000000600082015250565b60006113fe601883610faf565b9150611409826113c8565b602082019050919050565b6000602082019050818103600083015261142d816113f1565b9050919050565b7f456c656374696f6e206e6f742061637469766500000000000000000000000000600082015250565b600061146a601383610faf565b915061147582611434565b602082019050919050565b600060208201905081810360008301526114998161145d565b9050919050565b7f566f746520696e646578206f7574206f6620626f756e64730000000000000000600082015250565b60006114d6601883610faf565b91506114e1826114a0565b602082019050919050565b60006020820190508181036000830152611505816114c9565b9050919050565b7f4e487b7100000000000000000000000000000000000000000000000000000000600052603260045260246000fd5b7f4e487b7100000000000000000000000000000000000000000000000000000000600052602260045260246000fd5b6000600282049050600182168061158257607f821691505b6020821081036115955761159461153b565b5b50919050565b7f496e76616c696420616464726573730000000000000000000000000000000000600082015250565b60006115d1600f83610faf565b91506115dc8261159b565b602082019050919050565b60006020820190508181036000830152611600816115c4565b9050919050565b7f456c656374696f6e206973206e6f742061637469766500000000000000000000600082015250565b600061163d601683610faf565b915061164882611607565b602082019050919050565b6000602082019050818103600083015261166c81611630565b9050919050565b7f5468697320766f7465722068617320616c726561647920766f74656400000000600082015250565b60006116a9601c83610faf565b91506116b482611673565b602082019050919050565b600060208201905081810360008301526116d88161169c565b9050919050565b7f496e76616c696420766f74657220494420686173680000000000000000000000600082015250565b6000611715601583610faf565b9150611720826116df565b602082019050919050565b6000602082019050818103600083015261174481611708565b9050919050565b7f496e76616c69642063616e646964617465206861736800000000000000000000600082015250565b6000611781601683610faf565b915061178c8261174b565b602082019050919050565b600060208201905081810360008301526117b081611774565b9050919050565b6000819050919050565b6117d26117cd82610ea3565b6117b7565b82525050565b6000819050919050565b6117f36117ee82610e65565b6117d8565b82525050565b600061180582876117c1565b60208201915061181582866117c1565b60208201915061182582856117e2565b60208201915061183582846117e2565b60208201915081905095945050505050565b7f4e487b7100000000000000000000000000000000000000000000000000000000600052601160045260246000fd5b600061188182610e65565b915061188c83610e65565b92508282019050808211156118a4576118a3611847565b5b92915050565b7f4e487b7100000000000000000000000000000000000000000000000000000000600052604160045260246000fd5b60008190508160005260206000209050919050565b60006020601f8301049050919050565b600082821b905092915050565b60006008830261193b7fffffffffffffffffffffffffffffffffffffffffffffffffffffffffffffffff826118fe565b61194586836118fe565b95508019841693508086168417925050509392505050565b6000819050919050565b600061198261197d61197884610e65565b61195d565b610e65565b9050919050565b6000819050919050565b61199c83611967565b6119b06119a882611989565b84845461190b565b825550505050565b600090565b6119c56119b8565b6119d0818484611993565b505050565b5b818110156119f4576119e96000826119bd565b6001810190506119d6565b5050565b601f821115611a3957611a0a816118d9565b611a13846118ee565b81016020851015611a22578190505b611a36611a2e856118ee565b8301826119d5565b50505b505050565b600082821c905092915050565b6000611a5c60001984600802611a3e565b1980831691505092915050565b6000611a758383611a4b565b9150826002028217905092915050565b611a8e82610fa4565b67ffffffffffffffff811115611aa757611aa66118aa565b5b611ab1825461156a565b611abc8282856119f8565b600060209050601f831160018114611aef5760008415611add578287015190505b611ae78582611a69565b865550611b4f565b601f198416611afd866118d9565b60005b82811015611b2557848901518255600182019150602085019450602081019050611b00565b86831015611b425784890151611b3e601f891682611a4b565b8355505b6001600288020188555050505b505050505050565b6000611b6282610e65565b9150611b6d83610e65565b9250828203905081811115611b8557611b84611847565b5b92915050565b82818337600083830152505050565b6000611ba68385610faf565b9350611bb3838584611b8b565b611bbc83610fea565b840190509392505050565b60006080820190508181036000830152611be2818789611b9a565b9050611bf16020830186610f95565b611bfe6040830185610e6f565b611c0b6060830184610e6f565b969550505050505056fea26469706673582212203f5ec6c2a079e13e4ef338ea1e98bba7b7d7076e0838a9cb80c3d94be8ff449764736f6c63430008180033",
  "linkReferences": {},
  "deployedLinkReferences": {}
}