{
  "_format": "hh-sol-artifact-1",
  "contractName": "BDVote",
  "sourceName": "contracts/BDVote.sol",
  "abi": [
    {
      "inputs": [],
      "stateMutability": "nonpayable",
      "type": "constructor"
    },
    {
      "anonymous": false,
      "inputs": [
        {
          "indexed": true,
          "internalType": "address",
          "name": "oldAdmin",
          "type": "address"
        },
        {
          "indexed": true,
          "internalType": "address",
          "name": "newAdmin",
          "type": "address"
        }
      ],
      "name": "AdminTransferred",
      "type": "event"
    },
    {
      "anonymous": false,
      "inputs": [
        {
          "indexed": false,
          "internalType": "uint256",
          "name": "timestamp",
          "type": "uint256"
        }
      ],
      "name": "ElectionEnded",
      "type": "event"
    },
    {
      "anonymous": false,
      "inputs": [
        {
          "indexed": false,
          "internalType": "uint256",
          "name": "timestamp",
          "type": "uint256"
        }
      ],
      "name": "ElectionStarted",
      "type": "event"
    },
    {
      "anonymous": false,
      "inputs": [
        {
          "indexed": true,
          "internalType": "bytes32",
          "name": "voterIdHash",
          "type": "bytes32"
        },
        {
          "indexed": false,
          "internalType": "bytes32",
          "name": "encryptedVote",
          "type": "bytes32"
        },
        {
          "indexed": false,
          "internalType": "uint256",
          "name": "timestamp",
          "type": "uint256"
        },
        {
          "indexed": false,
          "internalType": "uint256",
          "name": "voteIndex",
          "type": "uint256"
        }
      ],
      "name": "VoteCast",
      "type": "event"
    },
    {
      "inputs": [],
      "name": "admin",
      "outputs": [
        {
          "internalType": "address",
          "name": "",
          "type": "address"
        }
      ],
      "stateMutability": "view",
      "type": "function"
    },
    {
      "inputs": [
        {
          "internalType": "bytes32",
          "name": "voterIdHash",
          "type": "bytes32"
        },
        {
          "internalType": "bytes32",
          "name": "encryptedVote",
          "type": "bytes32"
        }
      ],
      "name": "castVote",
      "outputs": [],
      "stateMutability": "nonpayable",
      "type": "function"
    },
    {
      "inputs": [
        {
          "internalType": "bytes32",
          "name": "voterIdHash",
          "type": "bytes32"
        }
      ],
      "name": "checkHasVoted",
      "outputs": [
        {
          "internalType": "bool",
          "name": "",
          "type": "bool"
        }
      ],
      "stateMutability": "view",
      "type": "function"
    },
    {
      "inputs": [],
      "name": "electionActive",
      "outputs": [
        {
          "internalType": "bool",
          "name": "",
          "type": "bool"
        }
      ],
      "stateMutability": "view",
      "type": "function"
    },
    {
      "inputs": [],
      "name": "endElection",
      "outputs": [],
      "stateMutability": "nonpayable",
      "type": "function"
    },
    {
      "inputs": [
        {
          "internalType": "uint256",
          "name": "index",
          "type": "uint256"
        }
      ],
      "name": "getVote",
      "outputs": [
        {
          "internalType": "bytes32",
          "name": "voterIdHash",
          "type": "bytes32"
        },
        {
          "internalType": "bytes32",
          "name": "encryptedVote",
          "type": "bytes32"
        },
        {
          "internalType": "uint256",
          "name": "timestamp",
          "type": "uint256"
        },
        {
          "internalType": "address",
          "name": "submittedBy",
          "type": "address"
        }
      ],
      "stateMutability": "view",
      "type": "function"
    },
    {
      "inputs": [],
      "name": "getVoteCount",
      "outputs": [
        {
          "internalType": "uint256",
          "name": "",
          "type": "uint256"
        }
      ],
      "stateMutability": "view",
      "type": "function"
    },
    {
      "inputs": [
        {
          "internalType": "bytes32",
          "name": "",
          "type": "bytes32"
        }
      ],
      "name": "hasVoted",
      "outputs": [
        {
          "internalType": "bool",
          "name": "",
          "type": "bool"
        }
      ],
      "stateMutability": "view",
      "type": "function"
    },
    {
      "inputs": [],
      "name": "startElection",
      "outputs": [],
      "stateMutability": "nonpayable",
      "type": "function"
    },
    {
      "inputs": [],
      "name": "totalVotes",
      "outputs": [
        {
          "internalType": "uint256",
          "name": "",
          "type": "uint256"
        }
      ],
      "stateMutability": "view",
      "type": "function"
    },
    {
      "inputs": [
        {
          "internalType": "address",
          "name": "newAdmin",
          "type": "address"
        }
      ],
      "name": "transferAdmin",
      "outputs": [],
      "stateMutability": "nonpayable",
      "type": "function"
    },
    {
      "inputs": [
        {
          "internalType": "uint256",
          "name": "",
          "type": "uint256"
        }
      ],
      "name": "votes",
      "outputs": [
        {
          "internalType": "bytes32",
          "name": "voterIdHash",
          "type": "bytes32"
        },
        {
          "internalType": "bytes32",
          "name": "encryptedVote",
          "type": "bytes32"
        },
        {
          "internalType": "uint256",
          "name": "timestamp",
          "type": "uint256"
        },
        {
          "internalType": "address",
          "name": "submittedBy",
          "type": "address"
        }
      ],
      "stateMutability": "view",
      "type": "function"
    }
  ],
  "bytecode": "0x608060405234801561001057600080fd5b50336000806101000a81548173ffffffffffffffffffffffffffffffffffffffff021916908373ffffffffffffffffffffffffffffffffffffffff1602179055506001600060146101000a81548160ff0219169083151502179055507f159eee87222a0489c529f2153c26ad65d718f2cc33ebaa8d399d1dd5b39facaa4260405161009b91906100c1565b60405180910390a16100dc565b6000819050919050565b6100bb816100a8565b82525050565b60006020820190506100d660008301846100b2565b92915050565b611233806100eb6000396000f3fe608060405234801561001057600080fd5b50600436106100b45760003560e01c806362d73eb81161007157806362d73eb8146101a75780636721d18d146101b157806375829def146101cd5780637ed628bb146101e9578063e7b3387c14610207578063f851a44014610225576100b4565b80630d15fd77146100b95780631b4613cb146100d75780631c19656f1461010757806359f78468146101375780635a55c1f0146101415780635df8133014610174575b600080fd5b6100c1610243565b6040516100ce9190610ab4565b60405180910390f35b6100f160048036038101906100ec9190610b0a565b610249565b6040516100fe9190610b52565b60405180910390f35b610121600480360381019061011c9190610b0a565b610269565b60405161012e9190610b52565b60405180910390f35b61013f610293565b005b61015b60048036038101906101569190610b99565b6103c3565b60405161016b9493929190610c16565b60405180910390f35b61018e60048036038101906101899190610b99565b61047a565b60405161019e9493929190610c16565b60405180910390f35b6101af6104da565b005b6101cb60048036038101906101c69190610c5b565b61060c565b005b6101e760048036038101906101e29190610cc7565b6108a0565b005b6101f1610a5a565b6040516101fe9190610b52565b60405180910390f35b61020f610a6d565b60405161021c9190610ab4565b60405180910390f35b61022d610a77565b60405161023a9190610cf4565b60405180910390f35b60015481565b60036020528060005260406000206000915054906101000a900460ff1681565b60006003600083815260200190815260200160002060009054906101000a900460ff169050919050565b60008054906101000a900473ffffffffffffffffffffffffffffffffffffffff1673ffffffffffffffffffffffffffffffffffffffff163373ffffffffffffffffffffffffffffffffffffffff1614610321576040517f08c379a000000000000000000000000000000000000000000000000000000000815260040161031890610d6c565b60405180910390fd5b600060149054906101000a900460ff16610370576040517f08c379a000000000000000000000000000000000000000000000000000000000815260040161036790610dd8565b60405180910390fd5b60008060146101000a81548160ff0219169083151502179055507f562cd572b2ba3b666cd989fc4ca98419ec81e75f04528df9d9d76fdb7807ee71426040516103b99190610ab4565b60405180910390a1565b6000806000806002805490508510610410576040517f08c379a000000000000000000000000000000000000000000000000000000000815260040161040790610e44565b60405180910390fd5b60006002868154811061042657610425610e64565b5b906000526020600020906004020190508060000154816001015482600201548360030160009054906101000a900473ffffffffffffffffffffffffffffffffffffffff169450945094509450509193509193565b6002818154811061048a57600080fd5b90600052602060002090600402016000915090508060000154908060010154908060020154908060030160009054906101000a900473ffffffffffffffffffffffffffffffffffffffff16905084565b60008054906101000a900473ffffffffffffffffffffffffffffffffffffffff1673ffffffffffffffffffffffffffffffffffffffff163373ffffffffffffffffffffffffffffffffffffffff1614610568576040517f08c379a000000000000000000000000000000000000000000000000000000000815260040161055f90610d6c565b60405180910390fd5b600060149054906101000a900460ff16156105b8576040517f08c379a00000000000000000000000000000000000000000000000000000000081526004016105af90610edf565b60405180910390fd5b6001600060146101000a81548160ff0219169083151502179055507f159eee87222a0489c529f2153c26ad65d718f2cc33ebaa8d399d1dd5b39facaa426040516106029190610ab4565b60405180910390a1565b600060149054906101000a900460ff1661065b576040517f08c379a000000000000000000000000000000000000000000000000000000000815260040161065290610f4b565b60405180910390fd5b6003600083815260200190815260200160002060009054906101000a900460ff16156106bc576040517f08c379a00000000000000000000000000000000000000000000000000000000081526004016106b390610fb7565b60405180910390fd5b6000801b8203610701576040517f08c379a00000000000000000000000000000000000000000000000000000000081526004016106f890611023565b60405180910390fd5b6000801b8103610746576040517f08c379a000000000000000000000000000000000000000000000000000000000815260040161073d9061108f565b60405180910390fd5b60016003600084815260200190815260200160002060006101000a81548160ff021916908315150217905550600260405180608001604052808481526020018381526020014281526020013373ffffffffffffffffffffffffffffffffffffffff16815250908060018154018082558091505060019003906000526020600020906004020160009091909190915060008201518160000155602082015181600101556040820151816002015560608201518160030160006101000a81548173ffffffffffffffffffffffffffffffffffffffff021916908373ffffffffffffffffffffffffffffffffffffffff16021790555050506001600081548092919061084e906110de565b9190505550817fefdd60410ece9c397651f0850d0aae4d11f094be10352243ea824ec9f64f452e8242600180546108859190611126565b6040516108949392919061115a565b60405180910390a25050565b60008054906101000a900473ffffffffffffffffffffffffffffffffffffffff1673ffffffffffffffffffffffffffffffffffffffff163373ffffffffffffffffffffffffffffffffffffffff161461092e576040517f08c379a000000000000000000000000000000000000000000000000000000000815260040161092590610d6c565b60405180910390fd5b600073ffffffffffffffffffffffffffffffffffffffff168173ffffffffffffffffffffffffffffffffffffffff160361099d576040517f08c379a0000000000000000000000000000000000000000000000000000000008152600401610994906111dd565b60405180910390fd5b8073ffffffffffffffffffffffffffffffffffffffff1660008054906101000a900473ffffffffffffffffffffffffffffffffffffffff1673ffffffffffffffffffffffffffffffffffffffff167ff8ccb027dfcd135e000e9d45e6cc2d662578a8825d4c45b5e32e0adf67e79ec660405160405180910390a3806000806101000a81548173ffffffffffffffffffffffffffffffffffffffff021916908373ffffffffffffffffffffffffffffffffffffffff16021790555050565b600060149054906101000a900460ff1681565b6000600154905090565b60008054906101000a900473ffffffffffffffffffffffffffffffffffffffff1681565b6000819050919050565b610aae81610a9b565b82525050565b6000602082019050610ac96000830184610aa5565b92915050565b600080fd5b6000819050919050565b610ae781610ad4565b8114610af257600080fd5b50565b600081359050610b0481610ade565b92915050565b600060208284031215610b2057610b1f610acf565b5b6000610b2e84828501610af5565b91505092915050565b60008115159050919050565b610b4c81610b37565b82525050565b6000602082019050610b676000830184610b43565b92915050565b610b7681610a9b565b8114610b8157600080fd5b50565b600081359050610b9381610b6d565b92915050565b600060208284031215610baf57610bae610acf565b5b6000610bbd84828501610b84565b91505092915050565b610bcf81610ad4565b82525050565b600073ffffffffffffffffffffffffffffffffffffffff82169050919050565b6000610c0082610bd5565b9050919050565b610c1081610bf5565b82525050565b6000608082019050610c2b6000830187610bc6565b610c386020830186610bc6565b610c456040830185610aa5565b610c526060830184610c07565b95945050505050565b60008060408385031215610c7257610c71610acf565b5b6000610c8085828601610af5565b9250506020610c9185828601610af5565b9150509250929050565b610ca481610bf5565b8114610caf57600080fd5b50565b600081359050610cc181610c9b565b92915050565b600060208284031215610cdd57610cdc610acf565b5b6000610ceb84828501610cb2565b91505092915050565b6000602082019050610d096000830184610c07565b92915050565b600082825260208201905092915050565b7f4f6e6c792061646d696e2063616e2063616c6c20746869730000000000000000600082015250565b6000610d56601883610d0f565b9150610d6182610d20565b602082019050919050565b60006020820190508181036000830152610d8581610d49565b9050919050565b7f456c656374696f6e206e6f742061637469766500000000000000000000000000600082015250565b6000610dc2601383610d0f565b9150610dcd82610d8c565b602082019050919050565b60006020820190508181036000830152610df181610db5565b9050919050565b7f566f746520696e646578206f7574206f6620626f756e64730000000000000000600082015250565b6000610e2e601883610d0f565b9150610e3982610df8565b602082019050919050565b60006020820190508181036000830152610e5d81610e21565b9050919050565b7f4e487b7100000000000000000000000000000000000000000000000000000000600052603260045260246000fd5b7f456c656374696f6e20616c726561647920616374697665000000000000000000600082015250565b6000610ec9601783610d0f565b9150610ed482610e93565b602082019050919050565b60006020820190508181036000830152610ef881610ebc565b9050919050565b7f456c656374696f6e206973206e6f742061637469766500000000000000000000600082015250565b6000610f35601683610d0f565b9150610f4082610eff565b602082019050919050565b60006020820190508181036000830152610f6481610f28565b9050919050565b7f5468697320766f7465722068617320616c726561647920766f74656400000000600082015250565b6000610fa1601c83610d0f565b9150610fac82610f6b565b602082019050919050565b60006020820190508181036000830152610fd081610f94565b9050919050565b7f496e76616c696420766f74657220494420686173680000000000000000000000600082015250565b600061100d601583610d0f565b915061101882610fd7565b602082019050919050565b6000602082019050818103600083015261103c81611000565b9050919050565b7f496e76616c696420656e6372797074656420766f746500000000000000000000600082015250565b6000611079601683610d0f565b915061108482611043565b602082019050919050565b600060208201905081810360008301526110a88161106c565b9050919050565b7f4e487b7100000000000000000000000000000000000000000000000000000000600052601160045260246000fd5b60006110e982610a9b565b91507fffffffffffffffffffffffffffffffffffffffffffffffffffffffffffffffff820361111b5761111a6110af565b5b600182019050919050565b600061113182610a9b565b915061113c83610a9b565b9250828203905081811115611154576111536110af565b5b92915050565b600060608201905061116f6000830186610bc6565b61117c6020830185610aa5565b6111896040830184610aa5565b949350505050565b7f496e76616c696420616464726573730000000000000000000000000000000000600082015250565b60006111c7600f83610d0f565b91506111d282611191565b602082019050919050565b600060208201905081810360008301526111f6816111ba565b905091905056fea264697066735822122053a16101378bc5cd1fe0a42be070606b4d53476d991908c8deb741dacdc79ba064736f6c63430008180033",
  "linkReferences": {},
  "deployedLinkReferences": {}
}